:020000040800F2
:1000000000000220312C0008812C0008812C0008FF
:10001000812C0008812C0008812C000800000000C1
:10002000000000000000000000000000151C000897
:10003000812C000800000000151E000805060008BD
:10004000812C0008812C0008812C0008812C0008DC
:10005000812C0008812C0008812C0008812C0008CC
:10006000812C0008812C0008812C0008812C0008BC
:10007000812C0008812C0008812C0008812C0008AC
:10008000812C0008812C0008812C0008812C00089C
:10009000812C0008812C0008812C0008812C00088C
:1000A000812C0008812C0008812C0008812C00087C
:1000B000812C0008812C0008812C0008812C00086C
:1000C000812C0008812C0008812C0008812C00085C
:1000D000812C0008812C0008812C0008812C00084C
:1000E000812C0008812C0008812C0008812C00083C
:1000F000812C0008812C0008812C0008812C00082C
:10010000812C0008812C0008812C0008812C00081B
:10011000812C0008812C0008812C0008812C00080B
:10012000812C0008812C0008812C0008812C0008FB
:10013000812C0008812C0008812C0008812C0008EB
:10014000812C0008812C0008812C0008812C0008DB
:10015000812C0008812C0008812C0008812C0008CB
:10016000812C0008812C0008812C0008812C0008BB
:10017000812C0008812C0008812C00080000000060
:08018000812C0008812C00080D
:10018800044B05481B1A062B02D9044B03B1184728
:10019800704700BF0F0000200C0000200000000086
:1001A80005490648091A891001EBD171491002D096
:1001B800034B03B1184770470C0000200C000020C7
:1001C8000000000010B5064C237843B9FFF7D8FFAC
:1001D800044B13B10448AFF300800123237010BD12
:1001E8000C00002000000000E02C000808B5084BB7
:1001F8001BB108480849AFF300800848036813B9E1
:10020800BDE80840CCE7064B002BF9D09847F7E744
:1002180000000000E02C0008100000200C00002066
:1002280000000000B0B586B000AF094B3C1D1D466C
:100238000FCD0FC42B6823603B1D1846002101F029
:1002480099FB0246034B1A601837BD46B0BD00BF84
:10025800042D0008703D002080B582B000AF7860A2
:10026800012001F0B3FBFBE780B58CB000AF0023A1
:10027800BB61984A974B1B6B43F010031363954B74
:100288001B6B03F01003BB61BB6900237B61914AC0
:10029800904B1B6B43F0040313638E4B1B6B03F0F3
:1002A80004037B617B6900233B618A4A894B1B6B92
:1002B80043F080031363874B1B6B03F080033B61A0
:1002C8003B690023FB60834A824B1B6B43F00103AD
:1002D8001363804B1B6B03F00103FB60FB68002377
:1002E800BB607C4A7B4B1B6B43F002031363794B67
:1002F8001B6B03F00203BB60BB6800237B60754A7D
:10030800744B1B6B43F008031363724B1B6B03F0B6
:1003180008037B607B680823FB6101233B620023A1
:100328007B620023BB6207F11C036B48194600F08F
:1003380099FB0123FB6101233B6200237B620023BD
:10034800BB6207F11C036548194600F08BFB0823C4
:10035800FB6102233B6200237B620023BB6205230F
:10036800FB6207F11C035D48194600F07BFB102374
:10037800FB6102233B6200237B620023BB620623EE
:10038800FB6207F11C035648194600F06BFBE0239B
:10039800FB6102233B6200237B620023BB620523CF
:1003A800FB6207F11C034E48194600F05BFB04236F
:1003B800FB6100233B6200237B6207F11C03494871
:1003C800194600F04FFB4FF48063FB6102233B6248
:1003D80000237B620023BB620523FB6207F11C0339
:1003E8004048194600F03EFB4FF21003FB61012321
:1003F8003B6200237B620023BB6207F11C033A487F
:10040800194600F02FFB4FF4A453FB6102233B6213
:1004180000237B620023BB620623FB6207F11C03F7
:100428002E48194600F01EFB4FF40073FB610023B1
:100438003B6200237B6207F11C032948194600F040
:1004480011FB4FF4E053FB6102233B6200237B6204
:100458000023BB620A23FB6207F11C0320481946EC
:1004680000F000FB2023FB6100233B6200237B623A
:1004780007F11C031C48194600F0F4FA4FF41073F6
:10048800FB6112233B6201237B620023BB620423CE
:10049800FB6207F11C031348194600F0E3FA012335
:1004A800FB61124B3B6200237B6207F11C030A4885
:1004B800194600F0D7FA0223FB610D4B3B6200237B
:1004C8007B6207F11C030448194600F0CBFA303769
:1004D800BD4680BD003802400010024000080240BE
:1004E8000000024000040240000C0240000011100D
:1004F8000000121080B500AF00F06CF900F00EF8A3
:10050800FFF7B2FE00F080F800F0A0F800F0F6F86F
:10051800FFF788FE01F026FAFEE700BF80B594B029
:1005280000AF0023BB602C4A2B4B1B6C43F080535D
:100538001364294B1B6C03F08053BB60BB6800231A
:100548007B60264A254B1B6843F480431360234B8A
:100558001B6803F480437B607B6801233B620123B3
:100568007B620223BB634FF48003FB6308233B6475
:100578004FF4A8737B640223BB640723FB6407F171
:100588002003184600F00CFC0D23FB6002233B619E
:1005980000237B614FF4A053BB614FF48053FB6190
:1005A80007F10C031846052100F03CFE01F046F85F
:1005B80002460B4BA3FB02239B09184600F02AFABC
:1005C800042000F033FA4FF0FF300F21002200F032
:1005D80005FA5037BD4680BD003802400070004023
:1005E800D34D621080B500AF032000F0EDF94FF055
:1005F800FF300F21002200F0F1F980BD80B500AF77
:1006080001F0F8F980BD00BF80B582B000AF0D4B96
:100618000D4A1A600B4B00225A600A4B00229A605E
:10062800084B0022DA60074801F030F800233B60ED
:1006380000237B603B460348194601F0FBF8083766
:10064800BD4680BD743D00200010004080B582B0DA
:1006580000AF0D4B0D4A1A600B4B00225A600A4B33
:1006680000229A60084B0022DA60074801F00EF871
:1006780000233B6000237B603B460348194601F09A
:10068800D9F80837BD4680BDB03D002000140040B1
:1006980080B485B000AF78607B681B68144A9342C9
:1006A8000ED10023FB60134A124B1B6C43F010035E
:1006B8001364104B1B6C03F01003FB60FB6812E023
:1006C8007B681B680C4A93420DD10023BB60094A22
:1006D800084B1B6C43F020031364064B1B6C03F0A0
:1006E8002003BB60BB681437BD465DF8047B7047C8
:1006F80000100040003802400014004080B500AFF0
:10070800074B084A1A60064B00225A60044B4022E5
:100718009A60034B4022DA60014801F0D1F880BDAD
:10072800EC3D0020002C004080B485B000AF78601C
:100738007B681B680A4A93420DD10023FB60094A73
:10074800084B1B6C43F400631364064B1B6C03F4E7
:100758000063FB60FB681437BD465DF8047B704797
:10076800002C00400038024080B400AF164A164BF7
:10077800D3F8883043F47003C2F88830134A134B17
:100788001B6843F001031360104B00229A600F4A64
:100798000E4B1B6823F0847323F4803313600B4BD8
:1007A8000B4A5A60094A094B1B6823F480231360DB
:1007B800064B0022DA60044B4FF000629A60BD4697
:1007C8005DF8047B704700BF00ED00E00038024090
:1007D8001030002480B500AF0E4A0E4B1B6843F45E
:1007E800007313600B4A0B4B1B6843F48063136060
:1007F800084A084B1B6843F480731360032000F019
:10080800E3F80F2000F008F8FFF7ECFE0023184685
:1008180080BD00BF003C024080B582B000AF786068
:1008280000F00CFF0246094BA3FB02239B09184664
:1008380000F0F0F84FF0FF307968002200F0CEF8B1
:10084800002318460837BD4680BD00BFD34D62104F
:1008580080B400AF034B1B681846BD465DF8047BA7
:10086800704700BF2800002080B485B000AF7860D2
:100878007B6803F00703FB600C4BDB68BB60BA685E
:100888004FF6FF031340BB60FB681A02BB681343B3
:1008980043F0BF6343F40033BB60044ABB68D360D2
:1008A8001437BD465DF8047B704700BF00ED00E0DB
:1008B80080B400AF044BDB6803F4E0631B0A1846FE
:1008C800BD465DF8047B704700ED00E080B483B05E
:1008D80000AF03463960FB7197F90730002B0BDA3C
:1008E8000D49FB7903F00F03043B3A68D2B21201B9
:1008F800D2B20B441A7609E0084997F907303A68EA
:10090800D2B21201D2B20B4483F800230C37BD4691
:100918005DF8047B704700BF00ED00E000E100E0F7
:1009280080B489B000AFF860B9607A60FB6803F002
:100938000703FB61FB69C3F10703042B28BF0423EA
:10094800BB61FB690433062B02D9FB69033B00E05A
:1009580000237B61BB69012202FA03F35A1EBB68BC
:100968001A407B699A407B69012101FA03F3591EF9
:100978007B680B40134318462437BD465DF8047B5B
:10098800704700BF80B582B000AF78607B68013BDC
:10099800B3F1807F01D301230FE00A4A7B68013B52
:1009A80053604FF0FF300F21FFF790FF054B0022F7
:1009B8009A60044B07221A60002318460837BD4680
:1009C80080BD00BF10E000E080B582B000AF786065
:1009D8007868FFF749FF0837BD4680BD80B586B007
:1009E80000AF0346B9607A60FB7300237B61FFF7B1
:1009F8005FFF78617869B9687A68FFF791FF024606
:100A080097F90F3018461146FFF760FF1837BD46B3
:100A180080BD00BF80B582B000AF78607868FFF70E
:100A2800B1FF034618460837BD4680BD80B483B081
:100A380000AF78607B68042B06D1094A084B1B6815
:100A480043F00403136005E0054A054B1B6823F0D7
:100A5800040313600C37BD465DF8047B704700BF84
:100A680010E000E080B489B000AF786039600023FE
:100A78007B6100233B610023BB610023FB616DE1C7
:100A8800FB69012202FA03F37B613B681A687B6900
:100A980013403B613A697B699A4240F05C813B684C
:100AA8005B68022B03D03B685B68122B22D1FB6981
:100AB800DA087B68083253F82230BB61FB6903F01F
:100AC80007039B001A460F239340DB43BA69134080
:100AD800BB613B681B69FA6902F007029200934008
:100AE800BA691343BB61FB69DA087B680832B969E4
:100AF80043F822107B681B68BB61FB695B001A46E0
:100B080003239340DB43BA691340BB613B685B68CE
:100B180003F00303FA6952009340BA691343BB61B7
:100B28007B68BA691A603B685B68012B0BD03B682D
:100B38005B68022B07D03B685B68112B03D03B68CE
:100B48005B68122B2FD17B689B68BB61FB695B00DC
:100B58001A4603239340DB43BA691340BB613B68E1
:100B6800DB68FA6952009340BA691343BB617B683A
:100B7800BA699A607B685B68BB61FB69012202FA0B
:100B880003F3DB43BA691340BB613B685B6803F05E
:100B980010031A09FB6902FA03F3BA691343BB612C
:100BA8007B68BA695A607B68DB68BB61FB695B007C
:100BB8001A4603239340DB43BA691340BB613B6881
:100BC8009B68FA6952009340BA691343BB617B681A
:100BD800BA69DA603B685B6803F08053002B00F069
:100BE800BA800023FB60624A614B5B6C43F480432C
:100BF80053645F4B5B6C03F48043FB60FB685D4AA6
:100C0800FB699B08023352F82330BB61FB6903F090
:100C180003039B001A460F239340DB43BA69134032
:100C2800BB617B68544A934231D07B68534A9342F4
:100C38002BD07B68524A934225D07B68514A934215
:100C48001FD07B68504A934219D07B684F4A934221
:100C580013D07B684E4A93420DD07B684D4A93422D
:100C680007D07B684C4A934201D1082310E009233E
:100C78000EE007230CE006230AE0052308E004231E
:100C880006E0032304E0022302E0012300E000233E
:100C9800FA6902F0030292009340BA691343BB61F8
:100CA8003449FB699B080233BA6941F823203B4B5E
:100CB8001B68BB613B69DB43BA691340BB613B6896
:100CC8005B6803F48033002B03D0BA693B69134394
:100CD800BB61324ABB691360304B5B68BB613B69DF
:100CE800DB43BA691340BB613B685B6803F40033BC
:100CF800002B03D0BA693B691343BB61274ABB6920
:100D08005360264B9B68BB613B69DB43BA69134060
:100D1800BB613B685B6803F48013002B03D0BA699E
:100D28003B691343BB611D4ABB6993601B4BDB687E
:100D3800BB613B69DB43BA691340BB613B685B68D5
:100D480003F40013002B03D0BA693B691343BB615A
:100D5800124ABB69D360FB690133FB61FB690F2B46
:100D68007FF68EAE2437BD465DF8047B704700BF22
:100D780000380240003801400000024000040240F0
:100D880000080240000C024000100240001402401B
:100D980000180240001C024000200240003C0140B4
:100DA80080B58EB000AF786000237B637B681B68DA
:100DB80003F00103002B64D0A64B9B6803F00C03DF
:100DC800042B0BD0A34B9B6803F00C03082B12D108
:100DD800A04B5B6803F48003002B0CD09D4B1B6871
:100DE80003F40033002B05D07B685B68002B01D12E
:100DF80001230CE245E0984B00221A70FFF728FD0A
:100E0800786308E0FFF724FD02467B6BD31A642B56
:100E180001D90323FBE18F4B1B6803F40033002B3C
:100E2800F0D18D4A7B685B68DBB213707B685B68C6
:100E3800002B13D0FFF70CFD786308E0FFF708FDDF
:100E480002467B6BD31A642B01D90323DFE1814B64
:100E58001B6803F40033002BF0D012E0FFF7F8FC16
:100E6800786308E0FFF7F4FC02467B6BD31A642B27
:100E780001D90323CBE1774B1B6803F40033002B24
:100E8800F0D17B681B6803F00203002B77D0714B0D
:100E98009B6803F00C03002B0BD06E4B9B6803F090
:100EA8000C03082B26D16B4B5B6803F48003002BE3
:100EB80020D1684B1B6803F00203002B05D07B6828
:100EC800DB68012B01D00123A1E16248614B1B685B
:100ED80023F0F8027B681969F8233B633B6B93FAAC
:100EE800A3F3FB62FB6AB3FA83F301FA03F3134338
:100EF800036044E07B68DB68002B2AD0574B012253
:100F08001A60FFF7A5FC786308E0FFF7A1FC02462A
:100F18007B6BD31A642B01D9032378E14D4B1B68F3
:100F280003F00203002BF0D04A484A4B1B6823F019
:100F3800F8027B681969F823BB62BB6A93FAA3F3CA
:100F48007B627B6AB3FA83F301FA03F3134303600A
:100F580015E0424B00221A60FFF77AFC786308E03C
:100F6800FFF776FC02467B6BD31A642B01D9032367
:100F78004DE1384B1B6803F00203002BF0D17B686E
:100F88001B6803F00803002B30D07B685B69002BDB
:100F980016D0334B01221A60FFF75AFC786308E039
:100FA800FFF756FC02467B6BD31A642B01D9032347
:100FB8002DE1284B5B6F03F00203002BF0D015E006
:100FC800274B00221A60FFF743FC786308E0FFF71D
:100FD8003FFC02467B6BD31A642B01D9032316E12D
:100FE8001C4B5B6F03F00203002BF0D17B681B687E
:100FF80003F00403002B7ED00023BB60154A154B79
:101008001B6C43F080531364124B1B6C03F080532A
:10101800BB60BB68134A134B1B6843F480731360AF
:10102800FFF716FC786308E0FFF712FC02467B6BBB
:10103800D31A642B01D90323E9E00A4B1B6803F494
:101048008073002BF0D0084B00221A70FFF700FCC9
:10105800786316E000380240023802400000474238
:10106800800E47420070004070380240FFF7F0FBE6
:1010780002467B6BD31A41F28832934201D903238B
:10108800C5E0654B1B6F03F00203002BEED1634AEA
:101098007B689B68DBB213707B689B68002B15D05C
:1010A800FFF7D6FB78630AE0FFF7D2FB02467B6BBB
:1010B800D31A41F28832934201D90323A7E0564B51
:1010C8001B6F03F00203002BEED014E0FFF7C0FB08
:1010D80078630AE0FFF7BCFB02467B6BD31A41F248
:1010E8008832934201D9032391E04B4B1B6F03F0E5
:1010F8000203002BEED17B689B69002B00F08680F1
:10110800454B9B6803F00C03082B7DD07B689B69DB
:10111800022B62D1424B00221A60FFF799FB7863D9
:1011280008E0FFF795FB02467B6BD31A642B01D9C5
:1011380003236CE0384B1B6803F00073002BF0D1DD
:1011480035487B68DA697B681B6A1A437B68596A89
:1011580047F6C0733B623B6A93FAA3F3FB61FB69F2
:10116800B3FA83F301FA03F31A437B689B6A5B08BB
:10117800591E4FF44033BB61BB6993FAA3F37B61FB
:101188007B69B3FA83F301FA03F31A437B68D96ADC
:101198004FF070633B613B6993FAA3F3FB60FB6814
:1011A800B3FA83F301FA03F3134343601C4B0122A0
:1011B8001A60FFF74DFB786308E0FFF749FB02462A
:1011C8007B6BD31A642B01D9032320E0124B1B68D5
:1011D80003F00073002BF0D018E0114B00221A60C6
:1011E800FFF736FB786308E0FFF732FB02467B6BBC
:1011F800D31A642B01D9032309E0074B1B6803F0BA
:101208000073002BF0D101E0012300E00023184611
:101218003837BD4680BD00BF0038024070380240F4
:101228006000474280B584B000AF78603960002321
:10123800FB60A24B1B6803F00F023B689A4280F0E8
:10124800A8809E4B3A68D2B21A709C4B1B6803F078
:101258000F023B689A4201D0012369E17B681B6851
:1012680003F00203002B08D09549954B9B6823F0A7
:10127800F0027B689B6813438B607B681B6803F0F4
:101288000103002B00F031817B685B68012B07D1DB
:101298008B4B1B6803F40033002B1AD1012347E161
:1012A8007B685B68022B03D07B685B68032B08D1E3
:1012B800834B1B6803F00073002B01D1012337E136
:1012C80007E07F4B1B6803F00203002B01D10123C9
:1012D8002EE17B497A4B9B6823F003027B685B68AD
:1012E80013438B60FFF7B4FAF8607B685B68012BE7
:1012F80012D10AE0FFF7ACFA0246FB68D31A41F2B2
:101308008832934201D9032312E16D4B9B6803F0A5
:101318000C03042BEED1E8E07B685B68022B12D14A
:101328000AE0FFF795FA0246FB68D31A41F28832C1
:10133800934201D90323FBE0614B9B6803F00C0344
:10134800082BEED1D1E07B685B68032B0ED10AE055
:10135800FFF77EFA0246FB68D31A41F288329342BD
:1013680001D90323E4E0564B9B68F1E70AE0FFF755
:101378006FFA0246FB68D31A41F28832934201D9C8
:101388000323D5E04E4B9B6803F00C03002BEED1F2
:10139800ABE07B681B6803F00203002B08D04849C8
:1013A800474B9B6823F0F0027B689B6813438B6074
:1013B8007B681B6803F00103002B00F089807B68C1
:1013C8005B68012B07D13E4B1B6803F40033002BED
:1013D8001AD10123ACE07B685B68022B03D07B68E1
:1013E8005B68032B08D1364B1B6803F00073002B96
:1013F80001D101239CE007E0314B1B6803F0020395
:10140800002B01D1012393E02D492D4B9B6823F03C
:1014180003027B685B6813438B60FFF719FAF86077
:101428007B685B68012B12D10AE0FFF711FA0246CC
:10143800FB68D31A41F28832934201D9032377E03B
:101448001F4B9B6803F00C03042BEED140E07B6834
:101458005B68022B12D10AE0FFF7FAF90246FB6833
:10146800D31A41F28832934201D9032360E0144B26
:101478009B6803F00C03082BEED129E07B685B68BE
:10148800032B0ED10AE0FFF7E3F90246FB68D31AF3
:1014980041F28832934201D9032349E0084B9B6803
:1014A800F1E70FE0FFF7D4F90246FB68D31A41F2DF
:1014B8008832934206D903233AE000BF003C024039
:1014C800003802401C4B9B6803F00C03002BE9D149
:1014D8001A4B3A68D2B21A70184B1B6803F00F0205
:1014E8003B689A4201D0012322E07B681B6803F025
:1014F8000403002B08D010490F4B9B6823F4E052DB
:101508007B68DB6813438B607B681B6803F0080308
:10151800002B09D00849084B9B6823F460427B687C
:101528001B69DB0013438B600F20FFF775F900235D
:1015380018461037BD4680BD00380240003C0240C6
:1015480080B48BB000AF0023FB6100237B620023D3
:10155800BB6100233B62364B9B6803F00C03042BF2
:1015680006D0082B07D0002B58D1324B3B6258E0ED
:10157800314B3B6255E02E4B5B6803F03F03FB6148
:101588002B4B5B6803F48003002B17D02A4AFB69B6
:10159800B2FBF3F2264B596847F6C0730B4047F687
:1015A800C0717961796991FAA1F139613969B1FA42
:1015B80081F1CB4003FB02F37B6216E01D4AFB6915
:1015C800B2FBF3F21A4B596847F6C0730B4047F663
:1015D800C071F960F96891FAA1F1B960B968B1FA16
:1015E80081F1CB4003FB02F37B62114B5B6803F490
:1015F80040324FF440337B607B6893FAA3F33B603F
:101608003B68B3FA83F322FA03F301335B00BB614F
:101618007A6ABB69B2FBF3F33B6202E0054B3B62BB
:1016280000BF3B6A18462C37BD465DF8047B7047FF
:10163800003802400024F40000127A0080B582B01D
:1016480000AFFFF77DFF01460D4B9B6803F0F002EA
:10165800F0237B607B6893FAA3F33B603B68B3FAA3
:1016680083F322FA03F3074AD35C21FA03F3064A09
:101678001360054B1B6818460837BD4680BD00BF80
:1016880000380240202D00080000002080B582B0FC
:1016980000AF78607B68002B01D101231DE07B68D7
:1016A80093F83930DBB2002B06D17B68002283F82F
:1016B80038207868FEF7ECFF7B68022283F839202F
:1016C8007B681A687B6804331046194600F00AF8EC
:1016D8007B68012283F83920002318460837BD4665
:1016E80080BD00BF80B485B000AF7860396000234A
:1016F800FB607B681B68FB607B68434A934213D09E
:101708007B68B3F1804F0FD07B68404A93420BD07F
:101718007B683F4A934207D07B683E4A934203D096
:101728007B683D4A934201D1012300E00023002B4E
:1017380008D0FB6823F07003FB603B685B68FA68BD
:101748001343FB607B68304A93422BD07B68B3F12C
:10175800804F27D07B682D4A934223D07B682C4A40
:1017680093421FD07B682B4A93421BD07B682A4A3E
:10177800934217D07B68294A934213D07B68284A42
:1017880093420FD07B68274A93420BD07B68264A46
:10179800934207D07B68254A934203D07B68244A4A
:1017A800934201D1012300E00023002B08D0FB68FD
:1017B80023F44073FB603B68DB68FA681343FB6003
:1017C8007B68FA681A603B689A687B68DA623B68EB
:1017D8001A687B689A627B680B4A934203D07B68DD
:1017E8000D4A934201D1012300E00023002B03D0CE
:1017F8003B681A697B681A637B6801225A6114374F
:10180800BD465DF8047B70470000014000040040BD
:1018180000080040000C0040000401400040014066
:10182800004401400048014000180040001C0040EE
:101838000020004080B483B000AF786039607B68D6
:1018480093F83830012B01D1022332E07B68012262
:1018580083F838207B68022283F839207B681B686C
:101868007A681268526822F070025A607B681B68B6
:101878007A68126851683A6812680A435A607B6845
:101888001B687A681268926822F080029A607B6806
:101898001B687A68126891683A6852680A439A60C5
:1018A8007B68012283F839207B68002283F838207E
:1018B800002318460C37BD465DF8047B704700BF0F
:1018C80080B582B000AF78607B68002B01D101231E
:1018D8002CE07B685B7CDBB2002B05D17B680022A7
:1018E8001A747868FEF720FF7B6802225A747B68B6
:1018F8001A687B681B685B6823F4FF7323F0010395
:10190800796848687968896801430B4353607B6844
:101918001B687A681268126822F07F017A68D268B8
:101928000A431A607B6801225A7400231846083754
:10193800BD4680BD80B485B000AF0346FB80002360
:10194800FB60B7F90630842B05D0B7F90620FB6891
:1019580013440333FB60FB6818461437BD465DF833
:10196800047B704780B500AF00F0BEFD0023184629
:1019780080BD00BFF0B589B004AF786039607B687E
:101988005E687B681D687B681B699CB27B681B89E5
:101998001BB21846FFF7CEFF0346009307F10C036E
:1019A80001930023029300230393304629462246DD
:1019B8003B6800F075FC0346012B01D0002300E0D2
:1019C800FB6818461437BD46F0BD00BF80B584B02B
:1019D80000AF78607B68FB60FB68002B01D0FB6878
:1019E80000E00123184600F02DFD002318461037AB
:1019F800BD4680BD80B500AF01F0F8F80346012B65
:101A080001D000F033FA80BD80B483B000AF7860B5
:101A18007B6803F108027B685A607B684FF0FF32ED
:101A28009A607B6803F108027B68DA607B6803F1DF
:101A380008027B681A617B6800221A600C37BD4671
:101A48005DF8047B704700BF80B483B000AF786056
:101A58007B6800221A610C37BD465DF8047B70472D
:101A680080B485B000AF786039607B685B68FB60E4
:101A78003B68FA685A60FB689A683B689A60FB683A
:101A88009B683A685A60FB683A689A603B687A686B
:101A98001A617B681B685A1C7B681A601437BD463C
:101AA8005DF8047B704700BF80B485B000AF7860F4
:101AB80039603B681B68BB60BB68B3F1FF3F03D16B
:101AC8007B681B69FB600CE07B680833FB6002E005
:101AD800FB685B68FB60FB685B681A68BB689A42D6
:101AE800F6D9FB685A683B685A603B685B683A6895
:101AF8009A603B68FA689A60FB683A685A603B6883
:101B08007A681A617B681B685A1C7B681A601437EC
:101B1800BD465DF8047B704780B485B000AF78603F
:101B28007B681B69FB607B685B687A6892689A606F
:101B38007B689B687A6852685A60FB685A687B6859
:101B48009A4203D17B689A68FB685A607B680022D6
:101B58001A61FB681B685A1EFB681A60FB681B68E1
:101B680018461437BD465DF8047B704780B485B0CD
:101B780000AFF860B9607A60FB68043BFB60FB6803
:101B88004FF080721A60FB68043BFB60BA68FB6820
:101B98001A60FB68043BFB600C4AFB681A60FB6830
:101BA800143BFB607A68FB681A60FB68043BFB60C7
:101BB800FB686FF002021A60FB68203BFB60FB6861
:101BC80018461437BD465DF8047B7047D91B0008DA
:101BD80080B483B000AF0C4B1B68B3F1FF3F09D052
:101BE8004FF0500383F31188BFF36F8FBFF34F8F0C
:101BF8007B60FEE74FF0500383F31188BFF36F8FCC
:101C0800BFF34F8F3B60FEE704000020064B1968C6
:101C18000868B0E8F04F80F30988BFF36F8F4FF082
:101C2800000080F3118870474C3C0020064800688B
:101C3800006880F3088862B661B6BFF34F8FBFF3C0
:101C48006F8F00DF00BF000008ED00E080B586B0B0
:101C580000AF3B4B1B683B4A934209D14FF05003FE
:101C680083F31188BFF36F8FBFF34F8F3B61FEE79C
:101C7800334B1B68344A934209D14FF0500383F326
:101C88001188BFF36F8FBFF34F8FFB60FEE72F4BB9
:101C98007B617B691B78DBB2BB607B69FF221A70B2
:101CA8007B691B78DBB2FB71FB79DBB203F0500375
:101CB800DAB2274B1A70274B07221A6009E0254B26
:101CC8001B68013B234A1360FB79DBB25B00DBB284
:101CD800FB71FB79DBB2DBB25BB2002BEFDB1D4B98
:101CE8001B681B021B4A13601A4B1B6803F4E06352
:101CF800184A1360BB68DAB27B691A70164A164B29
:101D08001B6843F470031360134A134B1B6843F0BA
:101D18007043136000F0CCF8104B00221A6000F0FA
:101D2800E1F80F4A0E4B1B6843F040431360FFF77E
:101D38007DFFFFF74DFF002318461837BD4680BDCD
:101D480000ED00E071C20F4170C20F4100E400E0F5
:101D58002C0000203000002020ED00E004000020CE
:101D680034EF00E080B483B000AF4FF0500383F34A
:101D78001188BFF36F8FBFF34F8F7B600E4B1B68CB
:101D880001330D4A13600C4B1B68012B0ED10B4B12
:101D98001B68DBB2002B09D04FF0500383F3118886
:101DA800BFF36F8FBFF34F8F3B60FEE70C37BD4625
:101DB8005DF8047B704700BF0400002004ED00E0DC
:101DC80080B483B000AF104B1B68002B09D14FF0D3
:101DD800500383F31188BFF36F8FBFF34F8F7B607E
:101DE800FEE7094B1B68013B074A1360064B1B685B
:101DF800002B04D100233B603B6883F311880C3728
:101E0800BD465DF8047B704704000020EFF30980AD
:101E1800BFF36F8F144B1A681EF0100F08BF20ED28
:101E2800108A20E9F04F10604DF8043D4FF0500043
:101E380080F31188BFF34F8FBFF36F8F00F0F8FC6A
:101E48004FF0000080F3118808BC19680868B0E8F2
:101E5800F04F1EF0100F08BFB0EC108A80F309880D
:101E6800BFF36F8F704700BF4C3C002080B584B033
:101E780000AFEFF311824FF0500383F31188BFF3E3
:101E88006F8FBFF34F8FFA60BB6000F011FC034601
:101E9800002B03D0054B4FF080521A6000237B6063
:101EA8007B6883F311881037BD4680BD04ED00E0E0
:101EB80080B400AF074A084B1B680849A1FB03130D
:101EC8009B09013B1360064B07221A60BD465DF86B
:101ED800047B704714E000E000000020D34D62103E
:101EE80010E000E0DFF80C00016841F470010160C7
:101EF8007047000088ED00E080B58AB000AF7860D8
:101F08000023FB6100F030FB574B1B68002B01D10D
:101F180000F00CF9554B1A687B681340002B40F011
:101F28008C807B68002B1CD008227B6813447B6064
:101F38007B6803F00703002B13D07B6823F00703AB
:101F480008337B607B6803F00703002B09D04FF050
:101F5800500383F31188BFF36F8FBFF34F8F7B61FB
:101F6800FEE77B68002B68D0414B1B687A689A4271
:101F780063D8404B3B623F4B1B687B6204E07B6A43
:101F88003B627B6A1B687B627B6A5A687B689A4201
:101F980003D27B6A1B68002BF1D1334B1B687A6A2A
:101FA8009A424AD03B6A1B6808221344FB617B6A49
:101FB8001A683B6A1A607B6A5A687B68D21A0823D7
:101FC8005B009A421ED97A6A7B681344BB61BB697D
:101FD80003F00703002B09D04FF0500383F3118857
:101FE800BFF36F8FBFF34F8F3B61FEE77B6A5A6881
:101FF8007B68D21ABB695A607B6A7A685A60B8698A
:1020080000F0F6F81A4B1A687B6A5B68D31A184A0C
:102018001360174B1A68184B1B689A4203D2144B6B
:102028001B68154A13607B6A5A68104B1B681A4371
:102038007B6A5A607B6A00221A6000F0A3FAFB6987
:1020480003F00703002B09D04FF0500383F31188E6
:10205800BFF36F8FBFF34F8FFB60FEE7FB69184636
:102068002837BD4680BD00BF3C3C0020483C0020CE
:10207800403C0020343C0020443C002080B586B021
:1020880000AF78607B687B617B68002B46D00823B3
:102098005B427A6913447B617B693B613B695A689F
:1020A800204B1B681340002B09D14FF0500383F3DA
:1020B8001188BFF36F8FBFF34F8FFB60FEE73B695B
:1020C8001B68002B09D04FF0500383F31188BFF32E
:1020D8006F8FBFF34F8FBB60FEE73B695A68114BA8
:1020E8001B681340002B19D03B691B68002B15D1C6
:1020F8003B695A680B4B1B68DB431A403B695A60C3
:1021080000F032FA3B695A68074B1B681344064AC9
:102118001360386900F06CF800F034FA1837BD46DF
:1021280080BD00BF483C0020403C002080B485B002
:1021380000AF4FF47053BB60274BFB60FB6803F0A4
:102148000703002B0CD0FB680733FB60FB6823F008
:102158000703FB60BA68FB68D31A1F4A1344BB60C5
:10216800FB687B601D4A7B6813601C4B00225A6029
:102178007A68BB681344FB600822FB689B1AFB6003
:10218800FB6823F00703FB60FB68154A1360144BD8
:102198001B6800225A60124B1B6800221A607B6879
:1021A8003B603B68FA68D21A3B685A600C4B1A6865
:1021B8003B681A603B685B680A4A13603B685B6867
:1021C800094A1360094B4FF000421A601437BD46A4
:1021D8005DF8047B704700BF34000020343C0020C9
:1021E8003C3C0020443C0020403C0020483C00206F
:1021F80080B485B000AF7860274BFB6002E0FB68D5
:102208001B68FB60FB681A687B689A42F7D3FB6817
:10221800BB60FB685B68BA681A447B689A4208D15D
:10222800FB685A687B685B681A44FB685A60FB68FD
:102238007B607B68BB607B685B68BA681A44FB6834
:102248001B689A4218D1FB681A68144B1B689A429B
:102258000DD07B685A68FB681B685B681A447B680A
:102268005A60FB681B681A687B681A6008E00B4BA9
:102278001A687B681A6003E0FB681A687B681A6052
:10228800FA687B689A4202D0FB687A681A60143749
:10229800BD465DF8047B7047343C00203C3C002080
:1022A80080B58CB002AFF860B9603B601346FB8024
:1022B800FB68002B09D14FF0500383F31188BFF35B
:1022C8006F8FBFF34F8FBB61FEE73B6B062B09D9BE
:1022D8004FF0500383F31188BFF36F8FBFF34F8F15
:1022E8007B61FEE7FB881846B96B00F013FC386287
:1022F8003B6A002B7AD03B6A1A6BFB8803F1804358
:10230800013B9B001344FB61FB6923F00703FB615E
:10231800FB6903F00703002B09D04FF0500383F348
:102328001188BFF36F8FBFF34F8F3B61FEE7FB88C8
:102338000093386AB9683A6BFB6B00F0EBFAF869FE
:10234800F9683A68FFF712FC02463B6A1A607B6B31
:10235800002B02D07B6B3A6A1A60FFF703FD324B01
:102368001B680133304A1360304B1B68002B09D1BE
:102378002E4A3B6A13602C4B1B68012B0FD100F0CF
:102388001BFB0CE02A4B1B68002B08D1274B1B6852
:10239800DA6A3B6B9A4202D8244A3B6A1360254B9F
:1023A8001B680133234A1360224B1A683B6A5A643C
:1023B8003B6ADB6A1A46012303FA02F21E4B1B68CA
:1023C80013431D4A13603B6ADA6A13469B001344A1
:1023D8009B001A4A1A443B6A043310461946FFF711
:1023E8003FFB01237B62FFF7EBFC02E04FF0FF337A
:1023F8007B627B6A012B11D10D4B1B68002B0DD022
:102408000A4B1B68DA6A3B6B9A4207D20C4B4FF0B7
:1024180080521A60BFF34F8FBFF36F8F7B6A1846E5
:102428002837BD4680BD00BF4C3D00204C3C0020F5
:10243800583D0020683D0020543D0020503C0020BD
:1024480004ED00E080B586B000AF786000237B61C2
:102458007B68002B2FD01F4B1B68002B09D04FF037
:10246800500383F31188BFF36F8FBFF34F8FFB6067
:10247800FEE700F079F8184B1A687B6813443B6153
:10248800164B1B6804331846FFF746FB0346002B20
:102498000BD1124B1B68DB6A1A4601239340DA43BF
:1024A8000F4B1B6813400E4A1360386900F0FCFAA2
:1024B80000F068F878617B69002B07D1094B4FF071
:1024C80080521A60BFF34F8FBFF36F8F1837BD4626
:1024D80080BD00BF6C3D0020503D00204C3C0020DA
:1024E800543D002004ED00E080B588B004AF00231F
:1024F80000930023019300230293002303931648BB
:10250800164980220023FFF7CBFEF860FB68012BF9
:1025180011D14FF0500383F31188BFF36F8FBFF3CE
:102528004F8FBB600E4B01221A600E4B00221A60BF
:10253800FFF78CFB0CE0FB68002B09D14FF0500330
:1025480083F31188BFF36F8FBFF34F8F7B60FEE774
:102558001037BD4680BD00BFED280008182D0008C3
:10256800583D0020503D002080B400AF044B1B684C
:102578000133034A1360BD465DF8047B704700BF12
:102588006C3D002080B584B000AF0023FB603F4B5A
:102598001B68002B09D14FF0500383F31188BFF358
:1025A8006F8FBFF34F8F7B60FEE7FFF7DBFB374B87
:1025B8001B68013B354A1360344B1B68002B5DD107
:1025C800334B1B68002B59D030E0324BDB68DB689B
:1025D800BB60BB6818331846FFF79EFABB68043324
:1025E8001846FFF799FABB68DB6A1A46012303FA13
:1025F80002F2294B1B681343274A1360BB68DA6A47
:1026080013469B0013449B00244A1A44BB680433B6
:1026180010461946FFF724FABB68DA6A204B1B6894
:10262800DB6A9A4202D31F4B01221A60194B1B68BE
:10263800002BCAD11C4B1B68002B11D00CE000F0FA
:1026480037F80346002B02D0164B01221A60164BAE
:102658001B68013B144A1360134B1B68002BEED117
:10266800104B1B68012B09D10123FB600F4B4FF066
:1026780080521A60BFF34F8FBFF36F8FFFF7A0FB35
:10268800FB6818461037BD4680BD00BF6C3D002072
:102698004C3D00200C3D0020543D0020503C0020C3
:1026A8004C3C0020603D00205C3D002004ED00E033
:1026B80080B586B000AF00237B61524B1B68002BAE
:1026C80040F08F80504B1B6801334F4A13604E4BCC
:1026D8001B683B613B69002B1FD14C4B1B681B6877
:1026E800002B09D04FF0500383F31188BFF36F8F8D
:1026F800BFF34F8F3B60FEE7444B1B68FB60444BC6
:102708001B68424A1360424AFB681360414B1B68CE
:102718000133404A136000F045FA3F4B1B683A69A1
:102728009A424FD3394B1B681B68002B01D10123F8
:1027380000E00023002B04D0374B4FF0FF321A6023
:1027480040E0324B1B68DB68DB68BB60BB685B68DA
:102758007B603A697B689A4203D22F4A7B68136090
:1027680030E0BB6804331846FFF7D6F9BB689B6AAC
:10277800002B04D0BB6818331846FFF7CDF9BB68A7
:10278800DB6A1A46012303FA02F2244B1B6813433F
:10279800224A1360BB68DA6A13469B0013449B0005
:1027A8001F4A1A44BB68043310461946FFF758F904
:1027B800BB68DA6A1B4B1B68DB6A9A4201D30123A8
:1027C8007B61AFE7174B1B68DA6A154913469B0014
:1027D80013449B000B441B68012B07D901237B6121
:1027E80004E0114B1B6801330F4A13600F4B1B6841
:1027F800002B01D001237B617B6918461837BD4641
:1028080080BD00BF6C3D0020503D0020043D0020ED
:10281800083D0020643D002008000020543D0020B1
:10282800503C00204C3C00205C3D0020603D0020D6
:1028380080B487B000AF264B1B68002B03D0254B14
:1028480001221A603EE0234B00221A60224B1B68CB
:10285800FB60FB68B3FA83F3FB72FB7AC3F11F03D7
:102868007B611E497A6913469B0013449B000B4405
:102878001B68002B09D14FF0500383F31188BFF375
:102888006F8FBFF34F8F7B60FEE77A6913469B001B
:1028980013449B00114A13443B613B695B685A68C7
:1028A8003B695A603B695A683B6908339A4204D1CC
:1028B8003B695B685A683B695A603B695B68DB68DF
:1028C800074A13601C37BD465DF8047B704700BF9C
:1028D8006C3D0020603D0020543D0020503C00200D
:1028E8004C3C002080B582B000AF786000F0A2F8C0
:1028F800064B1B68012B07D9054B4FF080521A6015
:10290800BFF34F8FBFF36F8FF0E700BF503C00203D
:1029180004ED00E080B586B000AFF860B9607A6079
:102928003B6000237B6113E0BA687B691344197824
:10293800FA687B69134430330A461A71BA687B69AE
:1029480013441B78002B00D105E07B6901337B61C0
:102958007B690F2BE8D9FB68002283F843207B684A
:10296800062B01D906237B60FB687A68DA62FB686C
:102978007A68DA64FB6800221A65FB680433184633
:10298800FFF762F8FB6818331846FFF75DF8FB6835
:10299800FA681A617B68C3F10702FB689A61FB68F1
:1029A800FA685A62FB6800225A65FB68002283F8BD
:1029B80058201837BD4680BD80B582B000AF0023CF
:1029C8007B600CE07A6813469B0013449B00114A15
:1029D80013441846FFF718F87B6801337B607B685F
:1029E800062BEFD90C48FFF70FF80C48FFF70CF847
:1029F8000B48FFF709F80B48FFF706F80A48FFF7F6
:102A080003F80A4B044A1A60094B044A1A6008374B
:102A1800BD4680BD503C0020DC3C0020F03C00203E
:102A28000C3D0020203D0020383D0020043D0020C2
:102A3800083D002080B582B000AF28E0FFF794FD84
:102A4800164B1B68002B0CBF01230023DBB27B60F5
:102A5800FFF798FD7B68002B19D1FFF783F90F4B1F
:102A6800DB68DB683B603B6804331846FFF754F8C3
:102A78000B4B1B68013B0A4A13600A4B1B68013B5E
:102A8800084A1360FFF79CF9386800F07BF8054B9B
:102A98001B68002BD2D10837BD4680BD203D0020E1
:102AA8004C3D0020343D002080B582B000AF7860F6
:102AB800134B1B687A685A60124B1B687A689A42F3
:102AC80009D2114B1A680E4B1B680433104619467D
:102AD800FEF7EAFF10E00D4B1A68094B1B68043338
:102AE80010461946FEF7E0FF094B1B687A689A42C0
:102AF80002D2074A7B6813600837BD4680BD00BF15
:102B08004C3C0020503D0020083D0020043D0020A2
:102B18000800002080B584B000AF03463960FB8010
:102B28003B68002B06D1FB889B001846FFF7E4F9A9
:102B3800034600E03B68BB60BB68002B0ED05C20FE
:102B4800FFF7DAF9F860FB68002B03D0FB68BA6876
:102B58001A6305E0B868FFF791FA01E00023FB600B
:102B6800FB68002B08D0FB681A6BFB889B0010469B
:102B7800A5211A4600F0A8F8FB6818461037BD468C
:102B880080BD00BF80B582B000AF78607B681B6BEA
:102B98001846FFF773FA7868FFF770FA0837BD46EA
:102BA80080BD00BF80B483B000AF0E4B1B681B68AC
:102BB800002B01D1012300E00023002B04D00A4B95
:102BC8004FF0FF321A6008E0064B1B68DB68DB68D1
:102BD8007B607B685B68044A13600C37BD465DF810
:102BE800047B7047043D00200800002080B483B0B7
:102BF80000AF0B4B1B68002B02D101237B6008E060
:102C0800084B1B68002B02D102237B6001E00023E4
:102C18007B607B6818460C37BD465DF8047B7047BF
:102C2800583D00206C3D0020DFF834D0002103E03F
:102C38000C4B5B58435004310B480C4B42189A42DA
:102C4800F6D30B4A02E0002342F8043B094B9A42B0
:102C5800F9D3FDF789FD00F011F8FDF74BFC70473B
:102C680000000220382D0008000000200C00002081
:102C78000C000020003E0020FEE7000070B50E4B5F
:102C88000E4DED1AAD1000241E46AC4204D056F885
:102C9800242090470134F8E700F01EF8084D094B4E
:102CA800ED1AAD1000241E46AC4204D056F824207C
:102CB80090470134F8E770BD302D0008302D00082A
:102CC800342D0008302D000802440346934202D0F8
:102CD80003F8011BFAE77047F8B500BFF8BC08BC59
:102CE8009E467047F8B500BFF8BC08BC9E467047C2
:102CF80064656661756C745461736B00F82C000828
:102D080061020008000000000000000080000000D0
:102D180049444C4500000000000000000102030483
:082D280001020304060708097B
:042D3000F5010008A1
:042D3400CD010008C5
:0C2D38000024F400AAAAAAAAFFFFFFFFD3
:0400000508002C3192
:00000001FF
